:100000000C9434000C943E000C943E000C943E0082
:100010000C943E000C943E000C943E000C943E0068
:100020000C943E000C943E000C943E000C943E0058
:100030000C943E000C943E000C943E000C943E0048
:100040000C943E000C943E000C943E000C943E0038
:100050000C943E000C943E000C943E000C943E0028
:100060000C943E000C943E0011241FBECFEFD8E04C
:10007000DEBFCDBF0E9457000C947F000C9400009F
:1000800007C0EFEFFEE03197F1F700C000000197E5
:100090000097B9F708958CE384B915B80895880FCF
:1000A000991F880F991F8C73992785B908950E940D
:1000B0004B00E12CF12C83B18370823011F4E12CE0
:1000C000F12C83B183708130B1F48FE3E816F10431
:1000D00024F48FEFE81AF80A07C0E12CF12C04C0D1
:1000E00089E190E00E94400083B183708130C1F3C8
:1000F00083B18370A9F3C7010E944F00DCCFF8944D
:02010000FFCF2F
:00000001FF
